{
  "contractName": "_0xCatetherToken",
  "abi": [
    {
      "constant": true,
      "inputs": [],
      "name": "name",
      "outputs": [
        {
          "name": "",
          "type": "string"
        }
      ],
      "payable": false,
      "stateMutability": "view",
      "type": "function",
      "signature": "0x06fdde03"
    },
    {
      "constant": true,
      "inputs": [],
      "name": "lastRewardEthBlockNumber",
      "outputs": [
        {
          "name": "",
          "type": "uint256"
        }
      ],
      "payable": false,
      "stateMutability": "view",
      "type": "function",
      "signature": "0x163aa00d"
    },
    {
      "constant": false,
      "inputs": [
        {
          "name": "_account",
          "type": "address"
        }
      ],
      "name": "removeAdmin",
      "outputs": [],
      "payable": false,
      "stateMutability": "nonpayable",
      "type": "function",
      "signature": "0x1785f53c"
    },
    {
      "constant": true,
      "inputs": [
        {
          "name": "_account",
          "type": "address"
        }
      ],
      "name": "isAdmin",
      "outputs": [
        {
          "name": "",
          "type": "bool"
        }
      ],
      "payable": false,
      "stateMutability": "view",
      "type": "function",
      "signature": "0x24d7806c"
    },
    {
      "constant": true,
      "inputs": [
        {
          "name": "",
          "type": "uint256"
        }
      ],
      "name": "timeStampForEpoch",
      "outputs": [
        {
          "name": "",
          "type": "uint256"
        }
      ],
      "payable": false,
      "stateMutability": "view",
      "type": "function",
      "signature": "0x29de3798"
    },
    {
      "constant": true,
      "inputs": [],
      "name": "decimals",
      "outputs": [
        {
          "name": "",
          "type": "uint8"
        }
      ],
      "payable": false,
      "stateMutability": "view",
      "type": "function",
      "signature": "0x313ce567"
    },
    {
      "constant": true,
      "inputs": [],
      "name": "migrationEnabled",
      "outputs": [
        {
          "name": "",
          "type": "bool"
        }
      ],
      "payable": false,
      "stateMutability": "view",
      "type": "function",
      "signature": "0x35b944bf"
    },
    {
      "constant": true,
      "inputs": [],
      "name": "deprecatedContractAddress",
      "outputs": [
        {
          "name": "",
          "type": "address"
        }
      ],
      "payable": false,
      "stateMutability": "view",
      "type": "function",
      "signature": "0x3c221a32"
    },
    {
      "constant": true,
      "inputs": [],
      "name": "_totalSupply",
      "outputs": [
        {
          "name": "",
          "type": "uint256"
        }
      ],
      "payable": false,
      "stateMutability": "view",
      "type": "function",
      "signature": "0x3eaaf86b"
    },
    {
      "constant": true,
      "inputs": [
        {
          "name": "",
          "type": "address"
        }
      ],
      "name": "donationsTo",
      "outputs": [
        {
          "name": "",
          "type": "address"
        }
      ],
      "payable": false,
      "stateMutability": "view",
      "type": "function",
      "signature": "0x422c9b6e"
    },
    {
      "constant": true,
      "inputs": [
        {
          "name": "",
          "type": "address"
        }
      ],
      "name": "admin",
      "outputs": [
        {
          "name": "",
          "type": "bool"
        }
      ],
      "payable": false,
      "stateMutability": "view",
      "type": "function",
      "signature": "0x63a846f8"
    },
    {
      "constant": true,
      "inputs": [],
      "name": "tokensMinted",
      "outputs": [
        {
          "name": "",
          "type": "uint256"
        }
      ],
      "payable": false,
      "stateMutability": "view",
      "type": "function",
      "signature": "0x6de9f32b"
    },
    {
      "constant": true,
      "inputs": [],
      "name": "lastRewardTo",
      "outputs": [
        {
          "name": "",
          "type": "address"
        }
      ],
      "payable": false,
      "stateMutability": "view",
      "type": "function",
      "signature": "0x6fd396d6"
    },
    {
      "constant": false,
      "inputs": [
        {
          "name": "_account",
          "type": "address"
        }
      ],
      "name": "addAdmin",
      "outputs": [],
      "payable": false,
      "stateMutability": "nonpayable",
      "type": "function",
      "signature": "0x70480275"
    },
    {
      "constant": true,
      "inputs": [
        {
          "name": "",
          "type": "uint256"
        }
      ],
      "name": "targetForEpoch",
      "outputs": [
        {
          "name": "",
          "type": "uint256"
        }
      ],
      "payable": false,
      "stateMutability": "view",
      "type": "function",
      "signature": "0x71d9e0df"
    },
    {
      "constant": false,
      "inputs": [],
      "name": "acceptOwnership",
      "outputs": [],
      "payable": false,
      "stateMutability": "nonpayable",
      "type": "function",
      "signature": "0x79ba5097"
    },
    {
      "constant": true,
      "inputs": [],
      "name": "epochCount",
      "outputs": [
        {
          "name": "",
          "type": "uint256"
        }
      ],
      "payable": false,
      "stateMutability": "view",
      "type": "function",
      "signature": "0x829965cc"
    },
    {
      "constant": true,
      "inputs": [],
      "name": "_MAXIMUM_TARGET",
      "outputs": [
        {
          "name": "",
          "type": "uint256"
        }
      ],
      "payable": false,
      "stateMutability": "view",
      "type": "function",
      "signature": "0x87a2a9d6"
    },
    {
      "constant": true,
      "inputs": [],
      "name": "miningTarget",
      "outputs": [
        {
          "name": "",
          "type": "uint256"
        }
      ],
      "payable": false,
      "stateMutability": "view",
      "type": "function",
      "signature": "0x8a769d35"
    },
    {
      "constant": true,
      "inputs": [],
      "name": "challengeNumber",
      "outputs": [
        {
          "name": "",
          "type": "bytes32"
        }
      ],
      "payable": false,
      "stateMutability": "view",
      "type": "function",
      "signature": "0x8ae0368b"
    },
    {
      "constant": false,
      "inputs": [],
      "name": "renounceAdmin",
      "outputs": [],
      "payable": false,
      "stateMutability": "nonpayable",
      "type": "function",
      "signature": "0x8bad0c0a"
    },
    {
      "constant": true,
      "inputs": [],
      "name": "owner",
      "outputs": [
        {
          "name": "",
          "type": "address"
        }
      ],
      "payable": false,
      "stateMutability": "view",
      "type": "function",
      "signature": "0x8da5cb5b"
    },
    {
      "constant": true,
      "inputs": [],
      "name": "symbol",
      "outputs": [
        {
          "name": "",
          "type": "string"
        }
      ],
      "payable": false,
      "stateMutability": "view",
      "type": "function",
      "signature": "0x95d89b41"
    },
    {
      "constant": true,
      "inputs": [
        {
          "name": "",
          "type": "bytes32"
        }
      ],
      "name": "solutionForChallenge",
      "outputs": [
        {
          "name": "",
          "type": "bytes32"
        }
      ],
      "payable": false,
      "stateMutability": "view",
      "type": "function",
      "signature": "0xa70a8d23"
    },
    {
      "constant": true,
      "inputs": [],
      "name": "lastRewardAmount",
      "outputs": [
        {
          "name": "",
          "type": "uint256"
        }
      ],
      "payable": false,
      "stateMutability": "view",
      "type": "function",
      "signature": "0xbafedcaa"
    },
    {
      "constant": true,
      "inputs": [],
      "name": "miningEnabled",
      "outputs": [
        {
          "name": "",
          "type": "bool"
        }
      ],
      "payable": false,
      "stateMutability": "view",
      "type": "function",
      "signature": "0xbe8eb67e"
    },
    {
      "constant": true,
      "inputs": [],
      "name": "transfersEnabled",
      "outputs": [
        {
          "name": "",
          "type": "bool"
        }
      ],
      "payable": false,
      "stateMutability": "view",
      "type": "function",
      "signature": "0xbef97c87"
    },
    {
      "constant": true,
      "inputs": [],
      "name": "latestDifficultyPeriodStarted",
      "outputs": [
        {
          "name": "",
          "type": "uint256"
        }
      ],
      "payable": false,
      "stateMutability": "view",
      "type": "function",
      "signature": "0xcb9ae707"
    },
    {
      "constant": true,
      "inputs": [],
      "name": "newOwner",
      "outputs": [
        {
          "name": "",
          "type": "address"
        }
      ],
      "payable": false,
      "stateMutability": "view",
      "type": "function",
      "signature": "0xd4ee1d90"
    },
    {
      "constant": true,
      "inputs": [],
      "name": "_MINIMUM_TARGET",
      "outputs": [
        {
          "name": "",
          "type": "uint256"
        }
      ],
      "payable": false,
      "stateMutability": "view",
      "type": "function",
      "signature": "0xdc6e9cf9"
    },
    {
      "constant": false,
      "inputs": [
        {
          "name": "_newOwner",
          "type": "address"
        }
      ],
      "name": "transferOwnership",
      "outputs": [],
      "payable": false,
      "stateMutability": "nonpayable",
      "type": "function",
      "signature": "0xf2fde38b"
    },
    {
      "inputs": [],
      "payable": false,
      "stateMutability": "nonpayable",
      "type": "constructor",
      "signature": "constructor"
    },
    {
      "payable": true,
      "stateMutability": "payable",
      "type": "fallback"
    },
    {
      "anonymous": false,
      "inputs": [
        {
          "indexed": false,
          "name": "donation",
          "type": "address"
        }
      ],
      "name": "Donation",
      "type": "event",
      "signature": "0x187f451f92c6a4236353b5331d5fb67bdbfcc66b54367037fba41d6bcef08ce7"
    },
    {
      "anonymous": false,
      "inputs": [
        {
          "indexed": false,
          "name": "donator",
          "type": "address"
        },
        {
          "indexed": false,
          "name": "donnationAddress",
          "type": "address"
        }
      ],
      "name": "DonationAddressOf",
      "type": "event",
      "signature": "0xc9a43a9d07839ddc6fa52cff9559f630776003d97ecd4909f433d10cc760f890"
    },
    {
      "anonymous": false,
      "inputs": [
        {
          "indexed": true,
          "name": "from",
          "type": "address"
        },
        {
          "indexed": false,
          "name": "reward_amount",
          "type": "uint256"
        },
        {
          "indexed": false,
          "name": "epochCount",
          "type": "uint256"
        },
        {
          "indexed": false,
          "name": "newChallengeNumber",
          "type": "bytes32"
        }
      ],
      "name": "Mint",
      "type": "event",
      "signature": "0xcf6fbb9dcea7d07263ab4f5c3a92f53af33dffc421d9d121e1c74b307e68189d"
    },
    {
      "anonymous": false,
      "inputs": [
        {
          "indexed": true,
          "name": "admin",
          "type": "address"
        }
      ],
      "name": "TransfersEnabled",
      "type": "event",
      "signature": "0x6d3bdb877ca7bde5be7e4afec9b4afd12e4f3dd1188c8fa57a7802f0f6cfa4d4"
    },
    {
      "anonymous": false,
      "inputs": [
        {
          "indexed": true,
          "name": "admin",
          "type": "address"
        }
      ],
      "name": "TransfersDisabled",
      "type": "event",
      "signature": "0x972d3365ef4d458e53aedba4b7422b4eea3046ea55b243b9e64341b1f1ad449d"
    },
    {
      "anonymous": false,
      "inputs": [
        {
          "indexed": true,
          "name": "admin",
          "type": "address"
        }
      ],
      "name": "MiningEnabled",
      "type": "event",
      "signature": "0x5942d6acf6d8a2a8225fbbc39e6adff6bdcb43102f3ac0915f7ff55fbe3d97f6"
    },
    {
      "anonymous": false,
      "inputs": [
        {
          "indexed": true,
          "name": "admin",
          "type": "address"
        }
      ],
      "name": "MiningDisabled",
      "type": "event",
      "signature": "0x43a692ed3d82c40112d8aff9286f82f1da7790a28859fb5fa0dfec3e4de2b57a"
    },
    {
      "anonymous": false,
      "inputs": [
        {
          "indexed": true,
          "name": "admin",
          "type": "address"
        }
      ],
      "name": "MigrationEnabled",
      "type": "event",
      "signature": "0xf8cb72b93188da0cf41cc6a23978cb1faee80e70bd3c6bdf0a93017284745442"
    },
    {
      "anonymous": false,
      "inputs": [
        {
          "indexed": true,
          "name": "admin",
          "type": "address"
        }
      ],
      "name": "MigrationDisabled",
      "type": "event",
      "signature": "0x5ef6ebd27339449befd49055fe1066723e114f714aabd79b3047de5429b19427"
    },
    {
      "anonymous": false,
      "inputs": [
        {
          "indexed": true,
          "name": "user",
          "type": "address"
        },
        {
          "indexed": false,
          "name": "tokens",
          "type": "uint256"
        }
      ],
      "name": "MigratedTokens",
      "type": "event",
      "signature": "0x483f1b18c3ab18ad63c9a3ab7c8fb67b118d752a1c950075de711cb06c5e2ffb"
    },
    {
      "anonymous": false,
      "inputs": [
        {
          "indexed": true,
          "name": "admin",
          "type": "address"
        },
        {
          "indexed": true,
          "name": "account",
          "type": "address"
        }
      ],
      "name": "AdminAdded",
      "type": "event",
      "signature": "0xbf3f493c772c8c283fd124432c2d0f539ab343faa04258fe88e52912d36b102b"
    },
    {
      "anonymous": false,
      "inputs": [
        {
          "indexed": true,
          "name": "admin",
          "type": "address"
        },
        {
          "indexed": true,
          "name": "account",
          "type": "address"
        }
      ],
      "name": "AdminRemoved",
      "type": "event",
      "signature": "0xdb9d5d31320daf5bc7181d565b6da4d12e30f0f4d5aa324a992426c14a1d19ce"
    },
    {
      "anonymous": false,
      "inputs": [
        {
          "indexed": true,
          "name": "account",
          "type": "address"
        }
      ],
      "name": "AdminRenounced",
      "type": "event",
      "signature": "0x3aeb34a9cebce3c91879dc662fedfe0060c966cfcefb6985a595d1c0c56b8fca"
    },
    {
      "anonymous": false,
      "inputs": [
        {
          "indexed": true,
          "name": "_from",
          "type": "address"
        },
        {
          "indexed": true,
          "name": "_to",
          "type": "address"
        }
      ],
      "name": "OwnershipTransferred",
      "type": "event",
      "signature": "0x8be0079c531659141344cd1fd0a4f28419497f9722a3daafe3b4186f6b6457e0"
    },
    {
      "anonymous": false,
      "inputs": [
        {
          "indexed": true,
          "name": "from",
          "type": "address"
        },
        {
          "indexed": true,
          "name": "to",
          "type": "address"
        },
        {
          "indexed": false,
          "name": "tokens",
          "type": "uint256"
        }
      ],
      "name": "Transfer",
      "type": "event",
      "signature": "0xddf252ad1be2c89b69c2b068fc378daa952ba7f163c4a11628f55a4df523b3ef"
    },
    {
      "anonymous": false,
      "inputs": [
        {
          "indexed": true,
          "name": "tokenOwner",
          "type": "address"
        },
        {
          "indexed": true,
          "name": "spender",
          "type": "address"
        },
        {
          "indexed": false,
          "name": "tokens",
          "type": "uint256"
        }
      ],
      "name": "Approval",
      "type": "event",
      "signature": "0x8c5be1e5ebec7d5bd14f71427d1e84f3dd0314c0f7b2291e5b200ac8c7c3b925"
    },
    {
      "constant": false,
      "inputs": [
        {
          "name": "enable",
          "type": "bool"
        }
      ],
      "name": "enableTransfers",
      "outputs": [
        {
          "name": "",
          "type": "bool"
        }
      ],
      "payable": false,
      "stateMutability": "nonpayable",
      "type": "function",
      "signature": "0xf41e60c5"
    },
    {
      "constant": false,
      "inputs": [
        {
          "name": "enable",
          "type": "bool"
        }
      ],
      "name": "enableMining",
      "outputs": [
        {
          "name": "",
          "type": "bool"
        }
      ],
      "payable": false,
      "stateMutability": "nonpayable",
      "type": "function",
      "signature": "0x2ebdcd1c"
    },
    {
      "constant": false,
      "inputs": [
        {
          "name": "enable",
          "type": "bool"
        }
      ],
      "name": "enableMigration",
      "outputs": [
        {
          "name": "",
          "type": "bool"
        }
      ],
      "payable": false,
      "stateMutability": "nonpayable",
      "type": "function",
      "signature": "0x920cfa13"
    },
    {
      "constant": false,
      "inputs": [
        {
          "name": "nonce",
          "type": "uint256"
        },
        {
          "name": "challenge_digest",
          "type": "bytes32"
        }
      ],
      "name": "mint",
      "outputs": [
        {
          "name": "success",
          "type": "bool"
        }
      ],
      "payable": false,
      "stateMutability": "nonpayable",
      "type": "function",
      "signature": "0x1801fbe5"
    },
    {
      "constant": true,
      "inputs": [],
      "name": "getChallengeNumber",
      "outputs": [
        {
          "name": "",
          "type": "bytes32"
        }
      ],
      "payable": false,
      "stateMutability": "view",
      "type": "function",
      "signature": "0x4ef37628"
    },
    {
      "constant": true,
      "inputs": [],
      "name": "getMiningDifficulty",
      "outputs": [
        {
          "name": "",
          "type": "uint256"
        }
      ],
      "payable": false,
      "stateMutability": "view",
      "type": "function",
      "signature": "0x17da485f"
    },
    {
      "constant": true,
      "inputs": [],
      "name": "getMiningTarget",
      "outputs": [
        {
          "name": "",
          "type": "uint256"
        }
      ],
      "payable": false,
      "stateMutability": "view",
      "type": "function",
      "signature": "0x32e99708"
    },
    {
      "constant": true,
      "inputs": [],
      "name": "getMiningReward",
      "outputs": [
        {
          "name": "",
          "type": "uint256"
        }
      ],
      "payable": false,
      "stateMutability": "view",
      "type": "function",
      "signature": "0x490203a7"
    },
    {
      "constant": true,
      "inputs": [
        {
          "name": "nonce",
          "type": "uint256"
        },
        {
          "name": "challenge_digest",
          "type": "bytes32"
        },
        {
          "name": "challenge_number",
          "type": "bytes32"
        }
      ],
      "name": "getMintDigest",
      "outputs": [
        {
          "name": "digesttest",
          "type": "bytes32"
        }
      ],
      "payable": false,
      "stateMutability": "view",
      "type": "function",
      "signature": "0x97566aa0"
    },
    {
      "constant": true,
      "inputs": [
        {
          "name": "nonce",
          "type": "uint256"
        },
        {
          "name": "challenge_digest",
          "type": "bytes32"
        },
        {
          "name": "challenge_number",
          "type": "bytes32"
        },
        {
          "name": "testTarget",
          "type": "uint256"
        }
      ],
      "name": "checkMintSolution",
      "outputs": [
        {
          "name": "success",
          "type": "bool"
        }
      ],
      "payable": false,
      "stateMutability": "view",
      "type": "function",
      "signature": "0x81269a56"
    },
    {
      "constant": true,
      "inputs": [],
      "name": "totalSupply",
      "outputs": [
        {
          "name": "",
          "type": "uint256"
        }
      ],
      "payable": false,
      "stateMutability": "view",
      "type": "function",
      "signature": "0x18160ddd"
    },
    {
      "constant": true,
      "inputs": [
        {
          "name": "tokenOwner",
          "type": "address"
        }
      ],
      "name": "balanceOf",
      "outputs": [
        {
          "name": "balance",
          "type": "uint256"
        }
      ],
      "payable": false,
      "stateMutability": "view",
      "type": "function",
      "signature": "0x70a08231"
    },
    {
      "constant": false,
      "inputs": [
        {
          "name": "donationAddress",
          "type": "address"
        }
      ],
      "name": "changeDonation",
      "outputs": [
        {
          "name": "success",
          "type": "bool"
        }
      ],
      "payable": false,
      "stateMutability": "nonpayable",
      "type": "function",
      "signature": "0x3f06e17c"
    },
    {
      "constant": false,
      "inputs": [
        {
          "name": "to",
          "type": "address"
        },
        {
          "name": "tokens",
          "type": "uint256"
        }
      ],
      "name": "transfer",
      "outputs": [
        {
          "name": "success",
          "type": "bool"
        }
      ],
      "payable": false,
      "stateMutability": "nonpayable",
      "type": "function",
      "signature": "0xa9059cbb"
    },
    {
      "constant": false,
      "inputs": [
        {
          "name": "to",
          "type": "address"
        },
        {
          "name": "tokens",
          "type": "uint256"
        },
        {
          "name": "donation",
          "type": "address"
        }
      ],
      "name": "transferAndDonateTo",
      "outputs": [
        {
          "name": "success",
          "type": "bool"
        }
      ],
      "payable": false,
      "stateMutability": "nonpayable",
      "type": "function",
      "signature": "0x0f917e31"
    },
    {
      "constant": false,
      "inputs": [
        {
          "name": "spender",
          "type": "address"
        },
        {
          "name": "tokens",
          "type": "uint256"
        }
      ],
      "name": "approve",
      "outputs": [
        {
          "name": "success",
          "type": "bool"
        }
      ],
      "payable": false,
      "stateMutability": "nonpayable",
      "type": "function",
      "signature": "0x095ea7b3"
    },
    {
      "constant": false,
      "inputs": [
        {
          "name": "from",
          "type": "address"
        },
        {
          "name": "to",
          "type": "address"
        },
        {
          "name": "tokens",
          "type": "uint256"
        }
      ],
      "name": "transferFrom",
      "outputs": [
        {
          "name": "success",
          "type": "bool"
        }
      ],
      "payable": false,
      "stateMutability": "nonpayable",
      "type": "function",
      "signature": "0x23b872dd"
    },
    {
      "constant": true,
      "inputs": [
        {
          "name": "tokenOwner",
          "type": "address"
        },
        {
          "name": "spender",
          "type": "address"
        }
      ],
      "name": "allowance",
      "outputs": [
        {
          "name": "remaining",
          "type": "uint256"
        }
      ],
      "payable": false,
      "stateMutability": "view",
      "type": "function",
      "signature": "0xdd62ed3e"
    },
    {
      "constant": false,
      "inputs": [
        {
          "name": "spender",
          "type": "address"
        },
        {
          "name": "tokens",
          "type": "uint256"
        },
        {
          "name": "data",
          "type": "bytes"
        }
      ],
      "name": "approveAndCall",
      "outputs": [
        {
          "name": "success",
          "type": "bool"
        }
      ],
      "payable": false,
      "stateMutability": "nonpayable",
      "type": "function",
      "signature": "0xcae9ca51"
    },
    {
      "constant": false,
      "inputs": [
        {
          "name": "from",
          "type": "address"
        },
        {
          "name": "tokens",
          "type": "uint256"
        },
        {
          "name": "token",
          "type": "address"
        },
        {
          "name": "data",
          "type": "bytes"
        }
      ],
      "name": "receiveApproval",
      "outputs": [],
      "payable": false,
      "stateMutability": "nonpayable",
      "type": "function",
      "signature": "0x8f4ffcb1"
    },
    {
      "constant": false,
      "inputs": [
        {
          "name": "tokenAddress",
          "type": "address"
        },
        {
          "name": "tokens",
          "type": "uint256"
        }
      ],
      "name": "transferAnyERC20Token",
      "outputs": [
        {
          "name": "success",
          "type": "bool"
        }
      ],
      "payable": false,
      "stateMutability": "nonpayable",
      "type": "function",
      "signature": "0xdc39d06d"
    }
  ],
  "bytecode": "0x6080604052620100006009557c0100000000000000000000000000000000000000000000000000000000600a553480156200003957600080fd5b5060008054600160a060020a0319163390811790915562000063906401000000006200028e810204565b6040805180820190915260068082527f30784341544500000000000000000000000000000000000000000000000000006020909201918252620000a991600391620003f4565b506040805180820190915260108082527f3078436174657468657220546f6b656e000000000000000000000000000000006020909201918252620000f091600491620003f4565b5060058054600460ff199182161790915560178054600060168190556006819055613c9c60088190557f781504f93328a5bf6401754a85baab350e71a11d9051cc86a8ff6f9ebcf38477600c55600a547fd9607051d7aa2fb47268bac55823799ec595b5323e4eb3afd8ac94dd6ecd9d09819055427f16bee868faf013950e02ef3d8a93a0ed7abab7511d7dc46a4101b1836b30b3f1554360075590825260116020527ff2da415959ec5b9a6366c8a00b5971ef9e0df74553d249545d31a0fa441f2e40819055600b55630100000060b860020a0319909116768f7dbf90e71285552a687097220e1035c2e8763900000017909216600117905560405133917f6d3bdb877ca7bde5be7e4afec9b4afd12e4f3dd1188c8fa57a7802f0f6cfa4d491a26017805461ff00191661010017905560405133907f5942d6acf6d8a2a8225fbbc39e6adff6bdcb43102f3ac0915f7ff55fbe3d97f690600090a26017805462ff000019166201000017905560405133907ff8cb72b93188da0cf41cc6a23978cb1faee80e70bd3c6bdf0a9301728474544290600090a262000499565b600054600160a060020a031633146200030857604080517f08c379a000000000000000000000000000000000000000000000000000000000815260206004820152600e60248201527f6f776e6572207265717569726564000000000000000000000000000000000000604482015290519081900360640190fd5b600160a060020a03811615156200031e57600080fd5b600160a060020a03811660009081526002602052604090205460ff1615620003a757604080517f08c379a000000000000000000000000000000000000000000000000000000000815260206004820152601360248201527f41646d696e20616c726561647920616464656400000000000000000000000000604482015290519081900360640190fd5b600160a060020a038116600081815260026020526040808220805460ff191660011790555133917fbf3f493c772c8c283fd124432c2d0f539ab343faa04258fe88e52912d36b102b91a350565b828054600181600116156101000203166002900490600052602060002090601f016020900481019282601f106200043757805160ff191683800117855562000467565b8280016001018555821562000467579182015b82811115620004675782518255916020019190600101906200044a565b506200047592915062000479565b5090565b6200049691905b8082111562000475576000815560010162000480565b90565b61295f80620004a96000396000f3006080604052600436106102715763ffffffff7c010000000000000000000000000000000000000000000000000000000060003504166306fdde038114610276578063095ea7b3146103005780630f917e3114610338578063163aa00d146103635780631785f53c1461038a57806317da485f146103ad5780631801fbe5146103c257806318160ddd146103dd57806323b872dd146103f257806324d7806c1461041c57806329de37981461043d5780632ebdcd1c14610455578063313ce5671461046f57806332e997081461049a57806335b944bf146104af5780633c221a32146104c45780633eaaf86b146104f55780633f06e17c1461050a578063422c9b6e1461052b578063490203a71461054c5780634ef376281461056157806363a846f8146105765780636de9f32b146105975780636fd396d6146105ac57806370480275146105c157806370a08231146105e257806371d9e0df1461060357806379ba50971461061b57806381269a5614610630578063829965cc1461065157806387a2a9d6146106665780638a769d351461067b5780638ae0368b146106905780638bad0c0a146106a55780638da5cb5b146106ba5780638f4ffcb1146106cf578063920cfa131461073f57806395d89b411461075957806397566aa01461076e578063a70a8d231461078c578063a9059cbb146107a4578063bafedcaa146107c8578063be8eb67e146107dd578063bef97c87146107f2578063cae9ca5114610807578063cb9ae70714610870578063d4ee1d9014610885578063dc39d06d1461089a578063dc6e9cf9146108be578063dd62ed3e146108d3578063f2fde38b146108fa578063f41e60c51461091b575b600080fd5b34801561028257600080fd5b5061028b610935565b6040805160208082528351818301528351919283929083019185019080838360005b838110156102c55781810151838201526020016102ad565b50505050905090810190601f1680156102f25780820380516001836020036101000a031916815260200191505b509250505060405180910390f35b34801561030c57600080fd5b50610324600160a060020a03600435166024356109c3565b604080519115158252519081900360200190f35b34801561034457600080fd5b50610324600160a060020a036004358116906024359060443516610a78565b34801561036f57600080fd5b50610378610cbc565b60408051918252519081900360200190f35b34801561039657600080fd5b506103ab600160a060020a0360043516610cc2565b005b3480156103b957600080fd5b50610378610e6f565b3480156103ce57600080fd5b50610324600435602435610e98565b3480156103e957600080fd5b506103786111ac565b3480156103fe57600080fd5b50610324600160a060020a03600435811690602435166044356111b2565b34801561042857600080fd5b50610324600160a060020a0360043516611476565b34801561044957600080fd5b50610378600435611498565b34801561046157600080fd5b5061032460043515156114aa565b34801561047b57600080fd5b506104846115b3565b6040805160ff9092168252519081900360200190f35b3480156104a657600080fd5b506103786115bc565b3480156104bb57600080fd5b506103246115d1565b3480156104d057600080fd5b506104d96115e0565b60408051600160a060020a039092168252519081900360200190f35b34801561050157600080fd5b506103786115f6565b34801561051657600080fd5b50610324600160a060020a03600435166115fc565b34801561053757600080fd5b506104d9600160a060020a036004351661167a565b34801561055857600080fd5b50610378611695565b34801561056d57600080fd5b50610378611911565b34801561058257600080fd5b50610324600160a060020a0360043516611917565b3480156105a357600080fd5b5061037861192c565b3480156105b857600080fd5b506104d9611932565b3480156105cd57600080fd5b506103ab600160a060020a0360043516611941565b3480156105ee57600080fd5b50610378600160a060020a0360043516611a64565b34801561060f57600080fd5b50610378600435611a7f565b34801561062757600080fd5b506103ab611a91565b34801561063c57600080fd5b50610324600435602435604435606435611b19565b34801561065d57600080fd5b50610378611bcd565b34801561067257600080fd5b50610378611bd3565b34801561068757600080fd5b50610378611bd9565b34801561069c57600080fd5b50610378611bdf565b3480156106b157600080fd5b506103ab611be5565b3480156106c657600080fd5b506104d9611d16565b3480156106db57600080fd5b50604080516020601f6064356004818101359283018490048402850184019095528184526103ab94600160a060020a03813581169560248035966044359093169536956084949201918190840183828082843750949750611d259650505050505050565b34801561074b57600080fd5b506103246004351515611fcb565b34801561076557600080fd5b5061028b6120ce565b34801561077a57600080fd5b50610378600435602435604435612129565b34801561079857600080fd5b506103786004356121c7565b3480156107b057600080fd5b50610324600160a060020a03600435166024356121d9565b3480156107d457600080fd5b50610378612253565b3480156107e957600080fd5b50610324612259565b3480156107fe57600080fd5b50610324612267565b34801561081357600080fd5b50604080516020600460443581810135601f8101849004840285018401909552848452610324948235600160a060020a03169460248035953695946064949201919081908401838280828437509497506122709650505050505050565b34801561087c57600080fd5b5061037861241f565b34801561089157600080fd5b506104d9612425565b3480156108a657600080fd5b50610324600160a060020a0360043516602435612434565b3480156108ca57600080fd5b50610378612528565b3480156108df57600080fd5b50610378600160a060020a036004358116906024351661252e565b34801561090657600080fd5b506103ab600160a060020a0360043516612559565b34801561092757600080fd5b5061032460043515156125d8565b6004805460408051602060026001851615610100026000190190941693909304601f810184900484028201840190925281815292918301828280156109bb5780601f10610990576101008083540402835291602001916109bb565b820191906000526020600020905b81548152906001019060200180831161099e57829003601f168201915b505050505081565b60175460009060ff161515610a10576040805160e560020a62461bcd0281526020600482015260126024820152600080516020612914833981519152604482015290519081900360640190fd5b336000818152601560209081526040808320600160a060020a03881680855290835292819020869055805186815290519293927f8c5be1e5ebec7d5bd14f71427d1e84f3dd0314c0f7b2291e5b200ac8c7c3b925929181900390910190a35060015b92915050565b601754600090819060ff161515610ac7576040805160e560020a62461bcd0281526020600482015260126024820152600080516020612914833981519152604482015290519081900360640190fd5b600160a060020a0385161515610b27576040805160e560020a62461bcd02815260206004820152601360248201527f746f206164647265737320726571756972656400000000000000000000000000604482015290519081900360640190fd5b600160a060020a03831615610b3b57506113885b33600090815260146020526040902054610b6f9061138890610b63908763ffffffff6126cb16565b9063ffffffff6126e016565b3360009081526014602052604080822092909255600160a060020a03871681522054610ba1908563ffffffff6126e016565b600160a060020a038087166000908152601460205260408082209390935590851681522054610bd6908263ffffffff6126e016565b600160a060020a038416600090815260146020526040902055610c13610c048261138863ffffffff6126e016565b6006549063ffffffff6126e016565b600655604080518581529051600160a060020a0387169133917fddf252ad1be2c89b69c2b068fc378daa952ba7f163c4a11628f55a4df523b3ef9181900360200190a36040805133815290516000805160206128d48339815191529181900360200190a1600160a060020a03831615610cb15760408051600160a060020a038516815290516000805160206128d48339815191529181900360200190a15b506001949350505050565b600f5481565b600054600160a060020a03163314610d12576040805160e560020a62461bcd02815260206004820152600e60248201526000805160206128f4833981519152604482015290519081900360640190fd5b600160a060020a0381161515610d2757600080fd5b600054600160a060020a0382811691161415610db3576040805160e560020a62461bcd02815260206004820152602360248201527f4f776e65722063616e206e6f742072656d6f7665206869732061646d696e207260448201527f6f6c650000000000000000000000000000000000000000000000000000000000606482015290519081900360840190fd5b600160a060020a03811660009081526002602052604090205460ff161515610e25576040805160e560020a62461bcd02815260206004820152601160248201527f52656d6f76652061646d696e206f6e6c79000000000000000000000000000000604482015290519081900360640190fd5b600160a060020a038116600081815260026020526040808220805460ff191690555133917fdb9d5d31320daf5bc7181d565b6da4d12e30f0f4d5aa324a992426c14a1d19ce91a350565b600854600090815260116020526040812054600a54610e939163ffffffff6126f016565b905090565b600080600080601760019054906101000a900460ff161515610f04576040805160e560020a62461bcd02815260206004820152600f60248201527f4d696e696e672064697361626c65640000000000000000000000000000000000604482015290519081900360640190fd5b600c54604080516020808201939093526c0100000000000000000000000033028183015260548082018a905282518083039091018152607490910191829052805190928291908401908083835b60208310610f705780518252601f199092019160209182019101610f51565b5181516020939093036101000a60001901801990911692169190911790526040519201829003909120955050508584149050610ff6576040805160e560020a62461bcd02815260206004820152601660248201527f6368616c6c656e67655f646967657374206572726f7200000000000000000000604482015290519081900360640190fd5b600b54831115611050576040805160e560020a62461bcd02815260206004820152601260248201527f6d696e696e67546172676574206572726f720000000000000000000000000000604482015290519081900360640190fd5b600c546000908152601060205260409020805490849055915081156110bf576040805160e560020a62461bcd02815260206004820152600f60248201527f736f6c7574696f6e206578697374730000000000000000000000000000000000604482015290519081900360640190fd5b6110c7611695565b336000908152601460205260409020549091506110ea908263ffffffff6126e016565b3360009081526014602052604090205560065461110d908263ffffffff6126e016565b600655601654611123908263ffffffff6126e016565b601655600d805473ffffffffffffffffffffffffffffffffffffffff191633179055600e81905543600f55611156612711565b600854600c54604080518481526020810193909352828101919091525133917fcf6fbb9dcea7d07263ab4f5c3a92f53af33dffc421d9d121e1c74b307e68189d919081900360600190a250600195945050505050565b60065490565b6017546000908190819060ff161515611203576040805160e560020a62461bcd0281526020600482015260126024820152600080516020612914833981519152604482015290519081900360640190fd5b600160a060020a0385161515611263576040805160e560020a62461bcd02815260206004820152601360248201527f746f206164647265737320726571756972656400000000000000000000000000604482015290519081900360640190fd5b600160a060020a03861660009081526014602052604090205461128c908563ffffffff6126cb16565b600160a060020a03871660009081526014602090815260408083209390935560158152828220338352905220546112c9908563ffffffff6126cb16565b600160a060020a03808816600090815260156020908152604080832033845282528083209490945591881681526014909152205461130d908563ffffffff6126e016565b600160a060020a03808716600090815260146020908152604080832094909455338252601390529190912054169150811561134757506113885b600160a060020a038216600090815260146020526040902054611370908263ffffffff6126e016565b600160a060020a0383166000908152601460205260408082209290925533815220546113a49061138863ffffffff6126e016565b336000908152601460205260409020556113c9610c048261138863ffffffff6126e016565b600655604080518581529051600160a060020a0380881692908916917fddf252ad1be2c89b69c2b068fc378daa952ba7f163c4a11628f55a4df523b3ef9181900360200190a36040805133815290516000805160206128d48339815191529181900360200190a1600160a060020a0382161561146a5760408051600160a060020a038416815290516000805160206128d48339815191529181900360200190a15b50600195945050505050565b600160a060020a03811660009081526002602052604090205460ff165b919050565b60126020526000908152604090205481565b3360009081526002602052604081205460ff161515611513576040805160e560020a62461bcd02815260206004820152600e60248201527f41646d696e207265717569726564000000000000000000000000000000000000604482015290519081900360640190fd5b60175460ff610100909104161515821515146115ab5760178054831580156101000261ff0019909216919091179091556115775760405133907f5942d6acf6d8a2a8225fbbc39e6adff6bdcb43102f3ac0915f7ff55fbe3d97f690600090a26115a3565b60405133907f43a692ed3d82c40112d8aff9286f82f1da7790a28859fb5fa0dfec3e4de2b57a90600090a25b506001611493565b506000919050565b60055460ff1681565b60085460009081526011602052604090205490565b60175462010000900460ff1681565b60175463010000009004600160a060020a031681565b60065481565b336000818152601360209081526040808320805473ffffffffffffffffffffffffffffffffffffffff1916600160a060020a038716908117909155815194855291840191909152805191927fc9a43a9d07839ddc6fa52cff9559f630776003d97ecd4909f433d10cc760f890929081900390910190a1506001919050565b601360205260009081526040902054600160a060020a031681565b600c546000908152601060205260408120546008546202710010156116c85760055460ff16600a0a61c35002915061190d565b620222e060085411156116ea5760055460ff16600a0a620124f802915061190d565b6201d4c0600854111561170c5760055460ff16600a0a6201e84802915061190d565b620186a0600854111561172e5760055460ff16600a0a6203d09002915061190d565b6201388060085411156117505760055460ff16600a0a6207a12002915061190d565b61ea6060085411156117715760055460ff16600a0a620f424002915061190d565b619c4060085411156118155760055460408051602080820185905282518083038201815291830192839052815160ff909416600a0a93622625a093918291908401908083835b602083106117d65780518252601f1990920191602091820191016117b7565b5181516020939093036101000a600019018019909116921691909117905260405192018290039091209250505081151561180c57fe5b0602915061190d565b614e2060085411156118795760055460408051602080820185905282518083038201815291830192839052815160ff909416600a0a93623567e09391829190840190808383602083106117d65780518252601f1990920191602091820191016117b7565b60055460408051602080820185905282518083038201815291830192839052815160ff909416600a0a93624c4b4093918291908401908083835b602083106118d25780518252601f1990920191602091820191016118b3565b5181516020939093036101000a600019018019909116921691909117905260405192018290039091209250505081151561190857fe5b060291505b5090565b600c5490565b60026020526000908152604090205460ff1681565b60165481565b600d54600160a060020a031681565b600054600160a060020a03163314611991576040805160e560020a62461bcd02815260206004820152600e60248201526000805160206128f4833981519152604482015290519081900360640190fd5b600160a060020a03811615156119a657600080fd5b600160a060020a03811660009081526002602052604090205460ff1615611a17576040805160e560020a62461bcd02815260206004820152601360248201527f41646d696e20616c726561647920616464656400000000000000000000000000604482015290519081900360640190fd5b600160a060020a038116600081815260026020526040808220805460ff191660011790555133917fbf3f493c772c8c283fd124432c2d0f539ab343faa04258fe88e52912d36b102b91a350565b600160a060020a031660009081526014602052604090205490565b60116020526000908152604090205481565b600154600160a060020a03163314611aa857600080fd5b60015460008054604051600160a060020a0393841693909116917f8be0079c531659141344cd1fd0a4f28419497f9722a3daafe3b4186f6b6457e091a3600180546000805473ffffffffffffffffffffffffffffffffffffffff19908116600160a060020a03841617909155169055565b6040805160208082018590526c010000000000000000000000003302828401526054808301889052835180840390910181526074909201928390528151600093849392909182918401908083835b60208310611b865780518252601f199092019160209182019101611b67565b5181516020939093036101000a60001901801990911692169190911790526040519201829003909120935050505082811115611bc157600080fd5b93909314949350505050565b60085481565b600a5481565b600b5481565b600c5481565b600054600160a060020a0316331415611c6e576040805160e560020a62461bcd02815260206004820152602860248201527f4f776e65722063616e206e6f742072656e6f756e636520746f2068697320616460448201527f6d696e20726f6c65000000000000000000000000000000000000000000000000606482015290519081900360840190fd5b3360009081526002602052604090205460ff161515611cd7576040805160e560020a62461bcd02815260206004820152601360248201527f52656e6f756e63652061646d696e206f6e6c7900000000000000000000000000604482015290519081900360640190fd5b33600081815260026020526040808220805460ff19169055517f3aeb34a9cebce3c91879dc662fedfe0060c966cfcefb6985a595d1c0c56b8fca9190a2565b600054600160a060020a031681565b60175462010000900460ff161515611d87576040805160e560020a62461bcd02815260206004820152601260248201527f4d6967726174696f6e2064697361626c65640000000000000000000000000000604482015290519081900360640190fd5b601754600160a060020a0383811663010000009092041614611e19576040805160e560020a62461bcd02815260206004820152602160248201527f57726f6e67206465707265636174656420636f6e74726163742061646472657360448201527f7300000000000000000000000000000000000000000000000000000000000000606482015290519081900360840190fd5b601754604080517f23b872dd000000000000000000000000000000000000000000000000000000008152600160a060020a0387811660048301523060248301526044820187905291516301000000909304909116916323b872dd916064808201926020929091908290030181600087803b158015611e9657600080fd5b505af1158015611eaa573d6000803e3d6000fd5b505050506040513d6020811015611ec057600080fd5b50511515611f18576040805160e560020a62461bcd02815260206004820152601c60248201527f6f6c64546f6b656e2e7472616e7366657246726f6d206661696c656400000000604482015290519081900360640190fd5b600160a060020a038416600090815260146020526040902054611f41908463ffffffff6126e016565b600160a060020a038516600090815260146020526040902055600654611f6d908463ffffffff6126e016565b600655601654611f83908463ffffffff6126e016565b601655604080518481529051600160a060020a038616917f483f1b18c3ab18ad63c9a3ab7c8fb67b118d752a1c950075de711cb06c5e2ffb919081900360200190a250505050565b3360009081526002602052604081205460ff161515612034576040805160e560020a62461bcd02815260206004820152600e60248201527f41646d696e207265717569726564000000000000000000000000000000000000604482015290519081900360640190fd5b60175460ff62010000909104161515821515146115ab576017805483158015620100000262ff0000199092169190911790915561209b5760405133907ff8cb72b93188da0cf41cc6a23978cb1faee80e70bd3c6bdf0a9301728474544290600090a26115a3565b60405133907f5ef6ebd27339449befd49055fe1066723e114f714aabd79b3047de5429b1942790600090a2506001611493565b6003805460408051602060026001851615610100026000190190941693909304601f810184900484028201840190925281815292918301828280156109bb5780601f10610990576101008083540402835291602001916109bb565b6040805160208082018490526c010000000000000000000000003302828401526054808301879052835180840390910181526074909201928390528151600093918291908401908083835b602083106121935780518252601f199092019160209182019101612174565b5181516020939093036101000a60001901801990911692169190911790526040519201829003909120979650505050505050565b60106020526000908152604090205481565b60175460009060ff161515612226576040805160e560020a62461bcd0281526020600482015260126024820152600080516020612914833981519152604482015290519081900360640190fd5b3360009081526013602052604090205461224c9084908490600160a060020a0316610a78565b9392505050565b600e5481565b601754610100900460ff1681565b60175460ff1681565b60175460009060ff1615156122bd576040805160e560020a62461bcd0281526020600482015260126024820152600080516020612914833981519152604482015290519081900360640190fd5b336000818152601560209081526040808320600160a060020a03891680855290835292819020879055805187815290519293927f8c5be1e5ebec7d5bd14f71427d1e84f3dd0314c0f7b2291e5b200ac8c7c3b925929181900390910190a36040517f8f4ffcb10000000000000000000000000000000000000000000000000000000081523360048201818152602483018690523060448401819052608060648501908152865160848601528651600160a060020a038a1695638f4ffcb195948a94938a939192909160a490910190602085019080838360005b838110156123ae578181015183820152602001612396565b50505050905090810190601f1680156123db5780820380516001836020036101000a031916815260200191505b5095505050505050600060405180830381600087803b1580156123fd57600080fd5b505af1158015612411573d6000803e3d6000fd5b506001979650505050505050565b60075481565b600154600160a060020a031681565b60008054600160a060020a03163314612485576040805160e560020a62461bcd02815260206004820152600e60248201526000805160206128f4833981519152604482015290519081900360640190fd5b60008054604080517fa9059cbb000000000000000000000000000000000000000000000000000000008152600160a060020a0392831660048201526024810186905290519186169263a9059cbb926044808401936020939083900390910190829087803b1580156124f557600080fd5b505af1158015612509573d6000803e3d6000fd5b505050506040513d602081101561251f57600080fd5b50519392505050565b60095481565b600160a060020a03918216600090815260156020908152604080832093909416825291909152205490565b600054600160a060020a031633146125a9576040805160e560020a62461bcd02815260206004820152600e60248201526000805160206128f4833981519152604482015290519081900360640190fd5b6001805473ffffffffffffffffffffffffffffffffffffffff1916600160a060020a0392909216919091179055565b3360009081526002602052604081205460ff161515612641576040805160e560020a62461bcd02815260206004820152600e60248201527f41646d696e207265717569726564000000000000000000000000000000000000604482015290519081900360640190fd5b60175460ff161515821515146115ab576017805460ff191683158015919091179091556126985760405133907f6d3bdb877ca7bde5be7e4afec9b4afd12e4f3dd1188c8fa57a7802f0f6cfa4d490600090a26115a3565b60405133907f972d3365ef4d458e53aedba4b7422b4eea3046ea55b243b9e64341b1f1ad449d90600090a2506001611493565b6000828211156126da57600080fd5b50900390565b81810182811015610a7257600080fd5b60008082116126fe57600080fd5b818381151561270957fe5b049392505050565b6008805460009081526012602052604090204290555461273890600163ffffffff6126e016565b600881905561274690612760565b600b5561275a43600163ffffffff6126cb16565b40600c55565b600061012c611824826127c460128261278088600263ffffffff6126cb16565b815260200190815260200160002054601260006127a760018a6126cb90919063ffffffff16565b8152602001908152602001600020546126cb90919063ffffffff16565b905061285161281983610b636128076127f5886127e98861041263ffffffff61288b16565b9063ffffffff6126f016565b610b63886103e863ffffffff6126cb16565b6127e987610f5063ffffffff61288b16565b6127e9612710601160006128348b600163ffffffff6126cb16565b81526020019081526020016000205461288b90919063ffffffff16565b60008681526011602052604090209081554360075554612870906128b0565b60008681526011602052604090208190559350505050919050565b8181028215806128a557508183828115156128a257fe5b04145b1515610a7257600080fd5b60095481908110156128c157506009545b600a54811115611493575050600a54905600187f451f92c6a4236353b5331d5fb67bdbfcc66b54367037fba41d6bcef08ce76f776e65722072657175697265640000000000000000000000000000000000005472616e73666572732064697361626c65640000000000000000000000000000a165627a7a723058203a7561b0ec44035791b2c1c0838a794c7238df8d6361afcb86a1d11e492475250029",
  "source": "pragma solidity ^0.4.24;\n\nimport \"./ERC20Interface.sol\";\nimport \"./EIP918Interface.sol\";\nimport \"./Owned.sol\";\nimport \"./Admin.sol\";\nimport \"./ApproveAndCallFallBack.sol\";\nimport \"./SafeMath.sol\";\nimport \"./ExtendedMath.sol\";\n\n// ----------------------------------------------------------------------------\n// '0xCatether Token' contract\n// Mineable ERC20 Token using Proof Of Work\n//\n// Symbol      : 0xCATE\n// Name        : 0xCatether Token\n// Total supply: No Limit\n// Decimals    : 4\n//\n// ----------------------------------------------------------------------------\n\n// ----------------------------------------------------------------------------\n// ERC20 Token, with the addition of symbol, name and decimals and an\n// initial fixed supply\n// ----------------------------------------------------------------------------\ncontract _0xCatetherToken is ERC20Interface, EIP918Interface, ApproveAndCallFallBack, Owned, Admin\n{\n    using SafeMath for uint;\n    using ExtendedMath for uint;\n\t\n    string public symbol;\n    string public  name;\n    uint8 public decimals;\n    uint public _totalSupply;\n    uint public latestDifficultyPeriodStarted;\n    uint public epochCount;//number of 'blocks' mined\n    \n\t//a little number\n    uint public  _MINIMUM_TARGET = 2**16;\n    //a big number is easier ; just find a solution that is smaller\n    uint public  _MAXIMUM_TARGET = 2**224; //bitcoin uses 224\n    \n\tuint public miningTarget;\n    bytes32 public challengeNumber;   //generate a new one when a new reward is minted\n    address public lastRewardTo;\n    uint public lastRewardAmount;\n    uint public lastRewardEthBlockNumber;\n\t\n    // a bunch of maps to know where this is going (pun intended)\n    \n    mapping(bytes32 => bytes32) public solutionForChallenge;\n    mapping(uint => uint) public targetForEpoch;\n    mapping(uint => uint) public timeStampForEpoch;\n    mapping(address => address) public donationsTo;\n    mapping(address => uint) balances;\n    mapping(address => mapping(address => uint)) allowed;\n    event Donation(address donation);\n    event DonationAddressOf(address donator, address donnationAddress);\n    event Mint(address indexed from, uint reward_amount, uint epochCount, bytes32 newChallengeNumber);\n\t\n\tuint public tokensMinted;\n\t\n\t// transfers enabled/disabled control\n\tbool public transfersEnabled;\n\tevent TransfersEnabled(address indexed admin);\n\tevent TransfersDisabled(address indexed admin);\n\t\n\t// mining enabled/disabled control\n\tbool public miningEnabled;\n\tevent MiningEnabled(address indexed admin);\n\tevent MiningDisabled(address indexed admin);\n\t\n\t// migrate deprecated contract tokens to this new one\n\tbool public migrationEnabled;\n\tevent MigrationEnabled(address indexed admin);\n\tevent MigrationDisabled(address indexed admin);\n\t\n\tevent MigratedTokens(address indexed user, uint tokens);\n\t\n\taddress public deprecatedContractAddress;\n\t\n\t\n\t\n    // ------------------------------------------------------------------------\n    // Constructor\n    // ------------------------------------------------------------------------\n    constructor() public{\n        symbol = \"0xCATE\";\n        name = \"0xCatether Token\";\n        \n        decimals = 4;\n\t\t\n\t\t// needed as reference and to migrate tokens from deprecated contract\n\t\tdeprecatedContractAddress = 0x8F7DbF90E71285552a687097220E1035C2e87639;\n\t\t\n\t\t\n\t\t\n\t\t//*** get data from deprecated contract ***//\n\t\ttokensMinted = 0; //will add as we migrate old tokens and from mining\n\t\t_totalSupply = 0; //total supply will increment as users claim and migrate tokens from deprecated contract\n        epochCount = 15516; //this is the latest epoch count from deprecated contract\n        \n        challengeNumber = bytes32(0x781504f93328a5bf6401754a85baab350e71a11d9051cc86a8ff6f9ebcf38477); //challengeNumber from deprecated contract on the main network\n        targetForEpoch[(epochCount - 1)] = _MAXIMUM_TARGET;\n        timeStampForEpoch[(epochCount - 1)] = block.timestamp;\n        latestDifficultyPeriodStarted = block.number;\n        \n        targetForEpoch[epochCount] = _MAXIMUM_TARGET;\n        miningTarget = _MAXIMUM_TARGET;\n\t\t//*** --- ***//\n\t\t\n\t\t\n\t\t\n\t\t// transfers are enabled by default\n\t\ttransfersEnabled = true;\n\t\temit TransfersEnabled(msg.sender);\n\t\t\n\t\t// enable mining by default\n\t\tminingEnabled = true;\n\t\temit MiningEnabled(msg.sender);\n\t\t\n\t\t// migration is enabled by default\n\t\tmigrationEnabled = true;\n\t\temit MigrationEnabled(msg.sender);\n    }\n\t\n\tmodifier whenMiningEnabled {\n\t\trequire(miningEnabled, \"Mining disabled\");\n\t\t_;\n\t}\n\t\n\tmodifier whenTransfersEnabled {\n\t\trequire(transfersEnabled, \"Transfers disabled\");\n\t\t_;\n\t}\n\t\n\tmodifier whenMigrationEnabled {\n\t\trequire(migrationEnabled, \"Migration disabled\");\n\t\t_;\n\t}\n\t\n\t\n\t\n\t/**\n\t * @dev Enable transfers if disabled and viceversa, executed only by admin.\n\t * @return bool\n\t */\n\tfunction enableTransfers(bool enable) public onlyAdmin returns (bool) {\n\t\tif (transfersEnabled != enable) {\n\t\t\ttransfersEnabled = enable;\n\t\t\tif (enable)\n\t\t\t\temit TransfersEnabled(msg.sender);\n\t\t\telse emit TransfersDisabled(msg.sender);\n\t\t\treturn true;\n\t\t}\n\t\treturn false;\n\t}\n\t\n\t/**\n\t * @dev Enable mining if disabled and viceversa, executed only by admin.\n\t * @return bool\n\t */\n\tfunction enableMining(bool enable) public onlyAdmin returns (bool) {\n\t\tif (miningEnabled != enable) {\n\t\t\tminingEnabled = enable;\n\t\t\tif (enable)\n\t\t\t\temit MiningEnabled(msg.sender);\n\t\t\telse emit MiningDisabled(msg.sender);\n\t\t\treturn true;\n\t\t}\n\t\treturn false;\n\t}\n\t\n\t/**\n\t * @dev Enable deprecated contract tokens migration if disabled and viceversa, executed only by admin.\n\t * @return bool\n\t */\n\tfunction enableMigration(bool enable) public onlyAdmin returns (bool) {\n\t\tif (migrationEnabled != enable) {\n\t\t\tmigrationEnabled = enable;\n\t\t\tif (enable)\n\t\t\t\temit MigrationEnabled(msg.sender);\n\t\t\telse emit MigrationDisabled(msg.sender);\n\t\t\treturn true;\n\t\t}\n\t\treturn false;\n\t}\n\t\n\t\n\t\n    function mint(uint256 nonce, bytes32 challenge_digest) public whenMiningEnabled returns (bool success) {\n\t\t\n        //the PoW must contain work that includes a recent ethereum block hash (challenge number) and the msg.sender's address to prevent MITM attacks\n        bytes32 digest =  keccak256(abi.encodePacked(challengeNumber, msg.sender, nonce));\n        \n\t\t//the challenge digest must match the expected\n        require(digest == challenge_digest, \"challenge_digest error\");\n\t\t\n        //the digest must be smaller than the target\n        require(uint256(digest) <= miningTarget, \"miningTarget error\");\n        \n\t\t//only allow one reward for each challenge\n\t\tbytes32 solution = solutionForChallenge[challengeNumber]; /// bug fix, 'challengeNumber' instead of 'challenge_digest'\n        solutionForChallenge[challengeNumber] = digest;\n        require(solution == 0x0, \"solution exists\");  //prevent the same answer from awarding twice\n        \n\t\tuint reward_amount = getMiningReward();\n        balances[msg.sender] = balances[msg.sender].add(reward_amount);\n        _totalSupply = _totalSupply.add(reward_amount);\n\t\ttokensMinted = tokensMinted.add(reward_amount);\n\t\t\n        //set readonly diagnostics data\n        lastRewardTo = msg.sender;\n        lastRewardAmount = reward_amount;\n        lastRewardEthBlockNumber = block.number;\n        \n\t\t_startNewMiningEpoch();\n        emit Mint(msg.sender, reward_amount, epochCount, challengeNumber );\n\t\treturn true;\n    }\n\n    //a new 'block' to be mined\n    function _startNewMiningEpoch() internal {\n\t\t\n\t\ttimeStampForEpoch[epochCount] = block.timestamp;\n        epochCount = epochCount.add(1);\n\t\t\n\t\t//Difficulty adjustment following the DigiChieldv3 implementation (Tempered-SMA)\n\t\t// Allows more thorough protection against multi-pool hash attacks\n\t\t// https://github.com/zawy12/difficulty-algorithms/issues/9\n\t\tminingTarget = _reAdjustDifficulty(epochCount);\n\t\t\n\t\t//make the latest ethereum block hash a part of the next challenge for PoW to prevent pre-mining future blocks\n\t\t//do this last since this is a protection mechanism in the mint() function\n\t\tchallengeNumber = blockhash(block.number.sub(1));\n    }\n\t\n    //https://github.com/zawy12/difficulty-algorithms/issues/21\n    //readjust the target via a tempered EMA\n    function _reAdjustDifficulty(uint epoch) internal returns (uint) {\n    \n        uint timeTarget = 300;  // We want miners to spend 5 minutes to mine each 'block'\n        uint N = 6180;          //N = 1000*n, ratio between timeTarget and windowTime (31-ish minutes)\n                                // (Ethereum doesn't handle floating point numbers very well)\n        uint elapsedTime = timeStampForEpoch[epoch.sub(1)].sub(timeStampForEpoch[epoch.sub(2)]); // will revert if current timestamp is smaller than the previous one\n        \n\t\ttargetForEpoch[epoch] = (targetForEpoch[epoch.sub(1)].mul(10000)).div( N.mul(3920).div(N.sub(1000).add(elapsedTime.mul(1042).div(timeTarget))).add(N));\n\t\t\n\t\t//              newTarget   =   Tampered EMA-retarget on the last 6 blocks (a bit more, it's an approximation)\n\t\t// \t\t\t\tAlso, there's an adjust factor, in order to correct the delays induced by the time it takes for transactions to confirm\n\t\t//\t\t\t\tDifficulty is adjusted to the time it takes to produce a valid hash. Here, if we set it to take 300 seconds, it will actually take \n\t\t//\t\t\t\t300 seconds + TxConfirmTime to validate that block. So, we wad a little % to correct that lag time.\n\t\t//\t\t\t\tOnce Ethereum scales, it will actually make block times go a lot faster. There's no perfect answer to this problem at the moment\n\t\t\n        latestDifficultyPeriodStarted = block.number;\n\t\t\n\t\ttargetForEpoch[epoch] = adjustTargetInBounds(targetForEpoch[epoch]);\n\t\t\n\t\treturn targetForEpoch[epoch];\n    }\n\t\n\tfunction adjustTargetInBounds(uint target) internal view returns (uint newTarget) {\n\t\tnewTarget = target;\n\t\t\n\t\tif (newTarget < _MINIMUM_TARGET) //very difficult\n\t\t{\n\t\t\tnewTarget = _MINIMUM_TARGET;\n\t\t}\n\t\t\n\t\tif (newTarget > _MAXIMUM_TARGET) //very easy\n\t\t{\n\t\t\tnewTarget = _MAXIMUM_TARGET;\n\t\t}\n\t}\n\t\n    //this is a recent ethereum block hash, used to prevent pre-mining future blocks\n    function getChallengeNumber() public view returns (bytes32) {\n        return challengeNumber;\n    }\n\n    //the number of zeroes the digest of the PoW solution requires.  Auto adjusts\n    function getMiningDifficulty() public view returns (uint) {\n\t\treturn _MAXIMUM_TARGET.div(targetForEpoch[epochCount]);\n\t}\n\t\n\tfunction getMiningTarget() public view returns (uint) {\n\t\treturn targetForEpoch[epochCount];\n\t}\n\t\n\t//There's no limit to the coin supply\n    //reward follows more or less the same emmission rate as Dogecoins'. 5 minutes per block / 105120 block in one year (roughly)\n    function getMiningReward() public view returns (uint) {\n        bytes32 digest = solutionForChallenge[challengeNumber];\n        if(epochCount > 160000) return (50000   * 10**uint(decimals) );\t\t\t\t\t\t\t\t\t//  14.4 M/day / ~ 1.0B Tokens in 20'000 blocks (coin supply @100'000th block ~ 150 Billions)\n        if(epochCount > 140000) return (75000   * 10**uint(decimals) );\t\t\t\t\t\t\t\t\t//  21.6 M/day / ~ 1.5B Tokens in 20'000 blocks (coin supply @100'000th block ~ 149 Billions)\n        if(epochCount > 120000) return (125000  * 10**uint(decimals) );\t\t\t\t\t\t\t\t\t//  36.0 M/day / ~ 2.5B Tokens in 20'000 blocks (coin supply @100'000th block ~ 146 Billions)\n        if(epochCount > 100000) return (250000  * 10**uint(decimals) );\t\t\t\t\t\t\t\t\t//  72.0 M/day / ~ 5.0B Tokens in 20'000 blocks (coin supply @100'000th block ~ 141 Billions) (~ 1 year elapsed)\n        if(epochCount > 80000) return  (500000  * 10**uint(decimals) );\t\t\t\t\t\t\t\t\t// 144.0 M/day / ~10.0B Tokens in 20'000 blocks (coin supply @ 80'000th block ~ 131 Billions)\n        if(epochCount > 60000) return  (1000000 * 10**uint(decimals) );       \t\t\t\t\t\t\t// 288.0 M/day / ~20.0B Tokens in 20'000 blocks (coin supply @ 60'000th block ~ 111 Billions)\n        if(epochCount > 40000) return  ((uint256(keccak256(abi.encodePacked(digest))) % 2500000) * 10**uint(decimals) );\t// 360.0 M/day / ~25.0B Tokens in 20'000 blocks (coin supply @ 40'000th block ~  86 Billions)\n        if(epochCount > 20000) return  ((uint256(keccak256(abi.encodePacked(digest))) % 3500000) * 10**uint(decimals) );\t// 504.0 M/day / ~35.0B Tokens in 20'000 blocks (coin supply @ 20'000th block ~  51 Billions)\n                               return  ((uint256(keccak256(abi.encodePacked(digest))) % 5000000) * 10**uint(decimals) );\t// 720.0 M/day / ~50.0B Tokens in 20'000 blocks \n    }\n\n    //help debug mining software (even though challenge_digest isn't used, this function is constant and helps troubleshooting mining issues)\n    function getMintDigest(uint256 nonce, bytes32 challenge_digest, bytes32 challenge_number) public view returns (bytes32 digesttest) {\n\t\treturn keccak256(abi.encodePacked(challenge_number,msg.sender,nonce));\n\t}\n\n    //help debug mining software\n    function checkMintSolution(uint256 nonce, bytes32 challenge_digest, bytes32 challenge_number, uint testTarget) public view returns (bool success) {\n\t\tbytes32 digest = keccak256(abi.encodePacked(challenge_number,msg.sender,nonce));\n\t\tif(uint256(digest) > testTarget) revert();\n\t\treturn (digest == challenge_digest);\n\t}\n\n    // ------------------------------------------------------------------------\n    // Total supply\n    // ------------------------------------------------------------------------\n    function totalSupply() public view returns (uint) {\n        return _totalSupply;\n    }\n\n    // ------------------------------------------------------------------------\n    // Get the token balance for account `tokenOwner`\n    // ------------------------------------------------------------------------\n    function balanceOf(address tokenOwner) public view returns (uint balance) {\n        return balances[tokenOwner];\n    }\n\t\n\t\n\t\n    function changeDonation(address donationAddress) public returns (bool success) {\n        donationsTo[msg.sender] = donationAddress;\n        \n        emit DonationAddressOf(msg.sender , donationAddress); \n        return true;\n    }\n\t\n\t\n\t\n    // ------------------------------------------------------------------------\n    // Transfer the balance from token owner's account to `to` account\n    // - Owner's account must have sufficient balance to transfer\n    // - 0 value transfers are allowed\n    // ------------------------------------------------------------------------\n    function transfer(address to, uint tokens) public whenTransfersEnabled returns (bool success) {\n        \n\t\treturn transferAndDonateTo(to, tokens, donationsTo[msg.sender]);\n    }\n    \n    function transferAndDonateTo(address to, uint tokens, address donation) public whenTransfersEnabled returns (bool success) {\n        require(to != address(0), \"to address required\");\n\t\t\n\t\tuint donation_tokens; //0 by default\n\t\tif (donation != address(0))\n\t\t\tdonation_tokens = 5000;\n\t\t\n        balances[msg.sender] = (balances[msg.sender].sub(tokens)).add(5000); // 0.5 CATE for the sender\n        balances[to] = balances[to].add(tokens);\n        balances[donation] = balances[donation].add(donation_tokens); // 0.5 CATE for the sender's specified donation address\n\t\t\n\t\t_totalSupply = _totalSupply.add(donation_tokens.add(5000));\n\t\t\n        emit Transfer(msg.sender, to, tokens);\n\t\temit Donation(msg.sender);\n\t\tif (donation != address(0)) {\n\t\t\temit Donation(donation);\n\t\t}\n        return true;\n    }\n\t\n    // ------------------------------------------------------------------------\n    // Token owner can approve for `spender` to transferFrom(...) `tokens`\n    // from the token owner's account\n    //\n    // https://github.com/ethereum/EIPs/blob/master/EIPS/eip-20-token-standard.md\n    // recommends that there are no checks for the approval double-spend attack\n    // as this should be implemented in user interfaces\n    // ------------------------------------------------------------------------\n    function approve(address spender, uint tokens) public whenTransfersEnabled returns (bool success) {\n        allowed[msg.sender][spender] = tokens;\n        emit Approval(msg.sender, spender, tokens);\n        return true;\n    }\n\n    // ------------------------------------------------------------------------\n    // Transfer `tokens` from the `from` account to the `to` account\n    //\n    // The calling account must already have sufficient tokens approve(...)-d\n    // for spending from the `from` account and\n    // - From account must have sufficient balance to transfer\n    // - Spender must have sufficient allowance to transfer\n    // - 0 value transfers are allowed\n    // ------------------------------------------------------------------------\n    function transferFrom(address from, address to, uint tokens) public whenTransfersEnabled returns (bool success) {\n        require(to != address(0), \"to address required\");\n\t\t\n        balances[from] = balances[from].sub(tokens);\n        allowed[from][msg.sender] = allowed[from][msg.sender].sub(tokens);\n        balances[to] = balances[to].add(tokens);\n        \n\t\taddress donation = donationsTo[msg.sender];\n\t\tuint donation_tokens; //0 by default\n\t\tif (donation != address(0))\n\t\t\tdonation_tokens = 5000;\n\t\t\n\t\tbalances[donation] = balances[donation].add(donation_tokens); // 0.5 CATE for the sender's donation address\n        balances[msg.sender] = balances[msg.sender].add(5000); // 0.5 CATE for the sender\n        _totalSupply = _totalSupply.add(donation_tokens.add(5000));\n\t\t\n\t\temit Transfer(from, to, tokens);\n\t\temit Donation(msg.sender);\n\t\tif (donation != address(0)) {\n\t\t\temit Donation(donation);\n\t\t}\n        \n        return true;\n    }\n\t\n    // ------------------------------------------------------------------------\n    // Returns the amount of tokens approved by the owner that can be\n    // transferred to the spender's account\n    // ------------------------------------------------------------------------\n    function allowance(address tokenOwner, address spender) public view returns (uint remaining) {\n        return allowed[tokenOwner][spender];\n    }\n\n    // ------------------------------------------------------------------------\n    // Token owner can approve for `spender` to transferFrom(...) `tokens`\n    // from the token owner's account. The `spender` contract function\n    // `receiveApproval(...)` is then executed\n    // ------------------------------------------------------------------------\n    function approveAndCall(address spender, uint tokens, bytes memory data) public whenTransfersEnabled returns (bool success) {\n        allowed[msg.sender][spender] = tokens;\n        emit Approval(msg.sender, spender, tokens);\n        ApproveAndCallFallBack(spender).receiveApproval(msg.sender, tokens, address(this), data);\n        return true;\n    }\n\t\n\t// ---\n\t// Migrate deprecated contract tokens using ApproveAndCallFallBack interface function.\n\t// ---\n\tfunction receiveApproval(address from, uint256 tokens, address token, bytes memory data) public whenMigrationEnabled {\n\t\t\n\t\trequire(token == deprecatedContractAddress, \"Wrong deprecated contract address\");\n\t\t\n\t\t//this contract becomes the owner of tokens from old contract\n\t\trequire(ERC20Interface(deprecatedContractAddress).transferFrom(from, address(this), tokens), \"oldToken.transferFrom failed\");\n\t\t\n\t\tbalances[from] = balances[from].add(tokens);\n\t\t_totalSupply = _totalSupply.add(tokens);\n\t\ttokensMinted = tokensMinted.add(tokens); //migrated tokens are minted in old contract\n\t\temit MigratedTokens(from, tokens);\n\t}\n\t\n\t\n\t\n    // ------------------------------------------------------------------------\n    // Don't accept ETH\n    // ------------------------------------------------------------------------\n    function () external payable {\n        revert();\n    }\n    \n    // ------------------------------------------------------------------------\n    // Owner can transfer out any accidentally sent ERC20 tokens\n    // ------------------------------------------------------------------------\n    function transferAnyERC20Token(address tokenAddress, uint tokens) public onlyOwner returns (bool success) {\n        return ERC20Interface(tokenAddress).transfer(owner, tokens);\n    }\n}",
  "sourcePath": "C:\\Users\\Homeuser\\Desktop\\0xCATE-token-smart-contract\\contracts\\0xCATE_v2.sol",
  "compiler": {
    "name": "solc",
    "version": "0.4.24+commit.e67f0147.Emscripten.clang"
  },
  "schemaVersion": "3.0.5",
  "updatedAt": "2020-06-20T10:55:52.985Z",
  "devdoc": {
    "methods": {
      "enableMigration(bool)": {
        "details": "Enable deprecated contract tokens migration if disabled and viceversa, executed only by admin.",
        "return": "bool"
      },
      "enableMining(bool)": {
        "details": "Enable mining if disabled and viceversa, executed only by admin.",
        "return": "bool"
      },
      "enableTransfers(bool)": {
        "details": "Enable transfers if disabled and viceversa, executed only by admin.",
        "return": "bool"
      }
    }
  },
  "userdoc": {
    "methods": {}
  }
}